:100000000C9434000C9449000C9449000C94490061
:100010000C9449000C9449000C9449000C9449003C
:100020000C9449000C9449000C9449000C9449002C
:100030000C9449000C9449000C9449000C9449001C
:100040000C9449000C9449000C9449000C9449000C
:100050000C9449000C9449000C9449000C944900FC
:100060000C9449000C94490011241FBECFEFD8E036
:10007000DEBFCDBF11E0A0E0B1E0E6E4F5E002C0F4
:1000800005900D92A833B107D9F70E94A4010C94F2
:10009000A1020C940000E0ECF0E08081826080839B
:1000A0001092C5008FEC8093C400E2ECF0E08081F8
:1000B00086608083E1ECF0E08081806180838081D4
:1000C000886080830895E0ECF0E0908195FFFDCF9B
:1000D0008093C6000895CF93DF93EC018881882335
:1000E00031F021960E94630089918111FBCFDF914D
:1000F000CF910895EF92FF920F931F93CF93DF93C9
:1001000000D000D0CDB7DEB720E330E03A832983BA
:100110001C821B82882319F1FE01319600E010E059
:100120004DEC01C08901849F912D112496959695DF
:100130009695392F330F232F220F220F230F821B67
:10014000805D8193892F98012F5F3F4F9111EACFF6
:10015000FE01E20FF31F118211231CF411C000E015
:1001600010E0CE01800F911F9C012E5F3F4F79015F
:10017000F70182917F010E94630001501109C2F7CB
:100180000F900F900F900F90DF91CF911F910F91D3
:10019000FF90EF900895EF92FF920F931F93CF93EC
:1001A000DF9300D000D000D0CDB7DEB7AC0180E344
:1001B00090E09A838983FE01339684E0DF011D92EB
:1001C0008A95E9F741155105B9F1329700E010E041
:1001D00001C08C019A01ADECBCEC0E943A029695EC
:1001E000879596958795969587959C01220F331F45
:1001F000880F991F880F991F880F991F820F931FCF
:100200009A01281B390BC901805D81939A010E94D4
:100210003A02AC01569547955695479556954795A0
:10022000C801019641155105A1F6FE01E80FF91F1D
:10023000118211231CF410C000E010E0CE01800FE9
:10024000911FDC0112967D01F70182917F010E94CE
:10025000630001501109C2F726960FB6F894DEBF6D
:100260000FBECDBFDF91CF911F910F91FF90EF9007
:1002700008958F929F92AF92BF92EF92FF920F9349
:100280001F93CF93DF93CDB7DEB72B970FB6F894BC
:10029000DEBF0FBECDBF20E330E03A832983FE01ED
:1002A000339629E0DF011D922A95E9F76115710562
:1002B0008105910541F132977F0100E010E00F2E9A
:1002C000FAE08F2E912CA12CB12CF02D01C08901C8
:1002D000A50194010E941802605DD7016D937D0114
:1002E000622F732F842F952F98012F5F3F4F611539
:1002F00071058105910559F7FE01E20FF31F118287
:1003000011231CF410C000E010E0CE01800F911FFB
:10031000FC0132967F01D7018E917D010E9463001E
:1003200001501109C2F72B960FB6F894DEBF0FBE2D
:10033000CDBFDF91CF911F910F91FF90EF90BF90B4
:10034000AF909F908F900895CF93DF9300D000D00F
:1003500000D0CDB7DEB786E0E2E3F1E0DE01119632
:1003600001900D928A95E1F70E944B006AE080E0CF
:1003700090E00E947D0264E170E08AE090E00E94DB
:100380009B024EE150E060E070E084E190E00E946A
:100390008F0245E050E06EE170E0CE0101960E94D0
:1003A0006D0280E090E00E945902B82E8AE090E051
:1003B0000E9467028C0184E190E00E9461026B015F
:1003C0007C0145E050E06EE170E0CE0101960E94B4
:1003D000490280E091E00E946B008B2D0E947A0020
:1003E0008DE091E00E946B0086E191E00E946B003D
:1003F000C8010E94CB008DE091E00E946B008FE06D
:1004000091E00E946B00C701B6010E9439018DE0A6
:1004100091E00E946B0083E291E00E946B00CE01AC
:1004200001960E946B008DE091E00E946B00FFCF6F
:10043000A1E21A2EAA1BBB1BFD010DC0AA1FBB1FE8
:10044000EE1FFF1FA217B307E407F50720F0A21B5A
:10045000B30BE40BF50B661F771F881F991F1A94C7
:1004600069F760957095809590959B01AC01BD01F1
:10047000CF010895A29FB001B39FC001A39F700D4B
:10048000811D1124911DB29F700D811D1124911D9C
:100490000895DC01CB01FC01F999FECF06C0F2BD45
:1004A000E1BDF89A319600B40D9241505040B8F732
:1004B0000895F999FECF92BD81BDF89A992780B52C
:1004C0000895A6E1B0E044E050E00C944B02A8E1AE
:1004D000B0E042E050E00C944B02DC01A40FB51FE9
:1004E0004150504048F0CB01840F951F2E910E943F
:1004F0007E0241505040D0F70895262FF999FECF43
:1005000092BD81BDF89A019700B4021639F01FBA66
:1005100020BD0FB6F894FA9AF99A0FBE0895039683
:10052000272F0E947E020E947D02252F0E947E02BC
:10053000242F0C947E020196272F0E947E020C9499
:060540007D02F894FFCFDC
:10054600427974652020202020203A20000A0044A9
:100556006F75626C6520576F726420202020202002
:100566003A2000537472696E672020202020203ABA
:0805760020004142434445000E
:00000001FF
