:100000000C9434000C9446000C9446000C9446006A
:100010000C9446000C9446000C9446000C94460048
:100020000C9446000C9446000C9446000C94460038
:100030000C9446000C9446000C9448000C94460026
:100040000C9446000C9446000C9446000C94460018
:100050000C9446000C9446000C9446000C94460008
:100060000C9446000C94460011241FBECFEFD8E03C
:10007000DEBFCDBF21E0A0E0B1E001C01D92A43001
:10008000B207E1F70E9483000C9492000C940000E8
:100090001F920F920FB60F9211242F933F938F93BD
:1000A0009F93809102019091030101969093030127
:1000B0008093020116BC809102019091030180346B
:1000C0009105C1F410920301109202018091000188
:1000D0009091010121E030E0009711F020E030E044
:1000E0003093010120930001892B19F48FEF85B91A
:1000F00001C015B89F918F913F912F910F900FBE26
:100100000F901F90189580E284B915B885B5856069
:1001100085BD80E887BDEEE6F0E080818260808367
:080120007894FFCFF894FFCFA3
:00000001FF
