:100000000C9434000C9449000C9449000C94490061
:100010000C9449000C9449000C9449000C9449003C
:100020000C9449000C9449000C9449000C9449002C
:100030000C9449000C9449000C9449000C9449001C
:100040000C9449000C9449000C9449000C9449000C
:100050000C9449000C9449000C9449000C944900FC
:100060000C9449000C94490011241FBECFEFD8E036
:10007000DEBFCDBF11E0A0E0B1E0E0E9F1E002C0F9
:1000800005900D92AE30B107D9F70E949C000C94F8
:10009000C6000C940000299A85E08A95F1F70000CB
:1000A00029988FE99FE00197F1F700C000000895BB
:1000B000289A8BB90E944B00089528988BB90E940A
:1000C0004B00089581E00E945D008FE39FE101975E
:1000D000F1F700C0000008952FEF80E792E0215073
:1000E00080409040E1F700C000008FEF8AB984B1F2
:1000F000836084B988E30E945D008CE00E945D000B
:100100000E94620086E00E945D0008950F931F9395
:10011000CF93FC018081882359F08F01C0E00E94B9
:100120005800CF5FF801EC0FF11D80818111F7CFEE
:10013000CF911F910F9108950E946C0080E091E093
:100140000E9486002FEF83ED90E321508040904085
:10015000E1F700C000000E94620080E80E945D009C
:1001600081E30E94580085E80E945D0082E30E94BE
:10017000580080EC0E945D0083E30E94580085ECEB
:100180000E945D0084E30E945800FFCFF894FFCFE7
:0E01900048656C6C6F20576F726C6421000024
:00000001FF
