:100000000C9434000C9449000C9449000C94490061
:100010000C9449000C9449000C9449000C9449003C
:100020000C9449000C9449000C9449000C9449002C
:100030000C9449000C9449000C9449000C9449001C
:100040000C9449000C9449000C9449000C9449000C
:100050000C9449000C9449000C9449000C944900FC
:100060000C9449000C94490011241FBECFEFD8E036
:10007000DEBFCDBF11E0A0E0B1E0E8E4F1E002C0F6
:1000800005900D92AA30B107D9F70E944B000C944D
:10009000A2000C940000CF93DF93CDB7DEB72A9770
:1000A0000FB6F894DEBF0FBECDBF8AE0E0E0F1E00E
:1000B000DE01119601900D928A95E1F78FEF8AB9D2
:1000C00080E090E00AE010E0E1E0F0E0EC0FFD1FDE
:1000D000E80FF91F20812BB90196B8010E947A0020
:1000E0002FEF33ED40E3215030404040E1F700C0B6
:1000F0000000EACF97FB072E16F4009407D077FD97
:1001000009D00E948E0007FC05D03EF490958195A1
:100110009F4F0895709561957F4F0895AA1BBB1B53
:1001200051E107C0AA1FBB1FA617B70710F0A61BF7
:10013000B70B881F991F5A95A9F780959095BC0118
:08014000CD010895F894FFCFF2
:0A014800FC60DAF266B6BEE4FEE6E3
:00000001FF
