S01C000063686174746572696E675F736F6C7574696F6E312E73726563D2
S11300000C9434000C943E000C943E000C943E007E
S11300100C943E000C943E000C943E000C943E0064
S11300200C943E000C943E000C943E000C943E0054
S11300300C943E000C943E000C943E000C943E0044
S11300400C943E000C943E000C943E000C943E0034
S11300500C943E000C943E000C943E000C943E0024
S11300600C943E000C943E0011241FBECFEFD8E048
S1130070DEBFCDBF0E9467000C948C000C9400007E
S1130080E0ECF0E08081826080831092C5008FEC08
S11300908093C400E2ECF0E0808186608083E1EC30
S11300A0F0E080818061808380818860808308950E
S11300B0E0ECF0E0908195FFFDCF8093C6000895B9
S11300C080E284B915B81AB884E08BB908950E9407
S11300D040000E94600080E090E06894FF24F5F8FE
S11300E001E010E0D0E0C0E04A9B04C015B88D2FB9
S11300F09C2FFACF892B19F48AE20E945800F5B894
S11301002FEF81EE94E0215080409040E1F700C051
S10F01100000802F912FE8CFF894FFCF5F
S9030000FC
