:100000000C9434000C943E000C943E000C943E0082
:100010000C943E000C943E000C943E000C943E0068
:100020000C943E000C943E000C943E000C943E0058
:100030000C943E000C943E000C943E000C943E0048
:100040000C943E000C943E000C943E000C943E0038
:100050000C943E000C943E000C943E000C943E0028
:100060000C943E000C943E0011241FBECFEFD8E04C
:10007000DEBFCDBF0E945D000C947F000C94000099
:1000800084B1886384B908952D9A2D9808952C9A87
:100090002C980895CF93DF93D82FC8E0DD2314F474
:1000A0002B9A01C02B980E944400DD0FC150B1F77C
:1000B0000E944700DF91CF9108950E944000C0E068
:1000C000D1E02C2F30E0C9010196877090789923F8
:1000D00024F40197886F9F6F0196C82F8D2F01C060
:1000E000880F2A95EAF70E944A002FEF83EC99E0E7
:1000F000215080409040E1F700C00000E2CFF8942A
:02010000FFCF2F
:00000001FF
