:100000000C9434000C943E000C943E000C943E0082
:100010000C943E000C943E000C943E000C943E0068
:100020000C943E000C943E000C943E000C943E0058
:100030000C943E000C943E000C943E000C943E0048
:100040000C943E000C943E000C943E000C943E0038
:100050000C943E000C943E000C943E000C943E0028
:100060000C943E000C943E0011241FBECFEFD8E04C
:10007000DEBFCDBF0E94A3000C94D9000C940000F9
:10008000229A239A249A259A389A399A3A9A3B9A2C
:10009000529A539A549A559A569A579A509A519AF4
:1000A000089580FF02C02A9A01C02A9881FF02C0E9
:1000B0002B9A01C02B9882FF02C02C9A01C02C9869
:1000C00083FF02C02D9A01C02D9884FF02C0409A80
:1000D00001C0409885FF02C0419A01C0419886FF47
:1000E00002C0429A01C04298882314F4439A0895AA
:1000F00043980895882314F45A9A01C05A9886FFA9
:1001000002C05B9A01C05B9885FF02C05C9A01C087
:100110005C9884FF02C05D9A01C05D9883FF02C0B5
:100120005E9A01C05E9882FF02C05F9A01C05F982C
:1001300081FF02C0589A01C0589880FF02C0599AA6
:100140000895599808950E944000CC24C394D12C5E
:100150000F2EF7E0AF2EB12CF02DE12CF12CC601C3
:100160000E2C02C0880F991F0A94E2F780950E9416
:100170005100C5018E199F091C2D01C0110F8A95D0
:10018000EAF7C8E0D0E0812F0E947A002FEF81EEDD
:1001900094E0215080409040E1F700C0000021979A
:1001A00091F72FEFE21AF20A88E0E816F104B9F6A7
:0601B000D4CFF894FFCF4C
:00000001FF
