S0130000736572766F5F6D6F746F722E7372656352
S11300000C9434000C943E000C943E000C943E007E
S11300100C943E000C943E000C943E000C943E0064
S11300200C943E000C943E000C943E000C943E0054
S11300300C943E000C943E000C943E000C943E0044
S11300400C943E000C943E000C943E000C943E0034
S11300500C943E000C943E000C943E000C943E0024
S11300600C943E000C943E0011241FBECFEFD8E048
S1130070DEBFCDBF0E9458000C9484000C94000095
S1130080E0E8F0E0808182608083A1E8B0E08C91B8
S113009088618C938C9182608C9386ED93EA909323
S11300A0870080938600808180688083219A0895E8
S11300B00E944000E8E8F0E041E358E02AE43CE034
S11300C083E690E1518340836FEF73EDA0E36150C9
S11300D07040A040E1F700C00000318320836FEF3F
S11300E073EDA0E361507040A040E1F700C0000050
S11300F0918380836FEF73EDA0E361507040A04063
S10F0100E1F700C00000DECFF894FFCF50
S9030000FC
