:100000000C9434000C9449000C9449000C94490061
:100010000C9449000C9449000C9449000C9449003C
:100020000C9449000C9449000C9449000C9449002C
:100030000C9449000C9449000C9449000C9449001C
:100040000C9449000C9449000C9449000C9449000C
:100050000C9449000C9449000C9449000C944900FC
:100060000C9449000C94490011241FBECFEFD8E036
:10007000DEBFCDBF11E0A0E0B1E0E0EDF1E002C0F5
:1000800005900D92A830B107D9F70E94AE000C94EC
:10009000E6000C940000229A239A249A259A389A12
:1000A000399A3A9A3B9A529A539A549A559A569A2E
:1000B000579A509A519A089580FF02C02A9A01C017
:1000C0002A9881FF02C02B9A01C02B9882FF02C0A0
:1000D0002C9A01C02C9883FF02C02D9A01C02D9844
:1000E00084FF02C0409A01C0409885FF02C0419A37
:1000F00001C0419886FF02C0429A01C042988823FD
:1001000014F4439A089543980895882314F45A9A4E
:1001100001C05A9886FF02C05B9A01C05B9885FFB8
:1001200002C05C9A01C05C9884FF02C05D9A01C065
:100130005D9883FF02C05E9A01C05E9882FF02C094
:100140005F9A01C05F9881FF02C0589A01C0589819
:1001500080FF02C0599A089559980895CF93DF936C
:10016000CDB7DEB728970FB6F894DEBF0FBECDBF70
:100170000E944B0088E0E0E0F1E0DE011196019082
:100180000D928A95E1F7CC24C394D12CCE0101962F
:100190007C0100E010E0C601002E02C0880F991F0C
:1001A0000A94E2F780950E945C00F70181917F013B
:1001B0000E9485008FE99FE00197F1F700C00000E1
:1001C0000F5F1F4F0830110531F7E0CFF894FFCFD4
:0801D0003C42A98585A9423CCF
:00000001FF
