S0190000756C747261736F756E645F73656E736F722E73726563C1
S11300000C9434000C9449000C9449000C9449005D
S11300100C9449000C9449000C9449000C94490038
S11300200C9449000C9449000C9449000C94490028
S11300300C9449000C9449000C9449000C94490018
S11300400C9449000C9449000C9449000C94490008
S11300500C9449000C9449000C9449000C944900F8
S11300600C9449000C94490011241FBECFEFD8E032
S1130070DEBFCDBF11E0A0E0B1E0ECE8F5E002C0E6
S113008005900D92A031B107D9F70E9409010C9493
S1130090C4020C940000E0ECF0E080818260808374
S11300A01092C5008FEC8093C400E2ECF0E08081F4
S11300B086608083E1ECF0E08081806180838081D0
S11300C0886080830895E0ECF0E0908195FFFDCF97
S11300D08093C6000895CF93DF93EC018881882331
S11300E031F021960E94630089918111FBCFDF9149
S11300F0CF910895EF92FF920F931F93CF93DF93C5
S113010000D000D0CDB7DEB720E330E03A832983B6
S11301101C821B82882319F1FE01319600E010E055
S11301204DEC01C08901849F912D112496959695DB
S11301309695392F330F232F220F220F230F821B63
S1130140805D8193892F98012F5F3F4F9111EACFF2
S1130150FE01E20FF31F118211231CF411C000E011
S113016010E0CE01800F911F9C012E5F3F4F79015B
S1130170F70182917F010E94630001501109C2F7C7
S11301800F900F900F900F90DF91CF911F910F91CF
S1130190FF90EF90089585B5856085BD0895409AD8
S11301A085E38A95F1F70000409816BC03C086B534
S11301B08B3F68F5319BFBCF16BC05C086B58B3FE2
S11301C010F016BC02C03199F9CF66B570E0762FF5
S11301D06627770F770F072E000C880B990B0E9468
S11301E0CB0120E034E244E759E40E94570220E0C6
S11301F034E244E75BE40E94280120E030E048E672
S113020052E40E9428010E949A01862F08958FEFDC
S11302100895389A87B1827087B90E944B000E9472
S1130220CB000E94CF00C82F80E091E00E946B00B9
S11302308C2F0E947A008AE00E9463002FEF83EDE6
S113024090E3215080409040E1F700C00000E9CFE6
S11302500E943C010C941D020E94160258F00E9458
S11302600F0240F029F45F3F29F00C94060251116B
S11302700C9451020C940C020E942E0268F39923F0
S1130280B1F3552391F3951B550BBB27AA2762178E
S11302907307840738F09F5F5F4F220F331F441F9B
S11302A0AA1FA9F335D00E2E3AF0E0E832D09150CF
S11302B05040E695001CCAF72BD0FE2F29D0660FBC
S11302C0771F881FBB1F261737074807AB07B0E8FF
S11302D009F0BB0B802DBF01FF2793585F4F3AF005
S11302E09E3F510578F00C9406020C9451025F3F36
S11302F0E4F3983ED4F3869577956795B795F7958B
S11303009F5FC9F7880F911D9695879597F9089572
S1130310E1E0660F771F881FBB1F6217730784070E
S1130320BA0720F0621B730B840BBA0BEE1F88F71D
S1130330E09508950E94360288F09F5798F0B92FEF
S11303409927B751B0F0E1F0660F771F881F991F06
S11303501AF0BA95C9F714C0B13091F00E94500256
S1130360B1E008950C945002672F782F8827B85F66
S113037039F0B93FCCF3869577956795B395D9F75E
S11303803EF490958095709561957F4F8F4F9F4F68
S11303900895E89409C097FB3EF490958095709574
S11303A061957F4F8F4F9F4F9923A9F0F92F96E9BD
S11303B0BB279395F695879577956795B795F11132
S11303C0F8CFFAF4BB0F11F460FF1BC06F5F7F4FCF
S11303D08F4F9F4F16C0882311F096E911C07723E1
S11303E021F09EE8872F762F05C0662371F096E8EA
S11303F0862F70E060E02AF09A95660F771F881FB9
S1130400DAF7880F9695879597F9089597F99F6776
S113041080E870E060E008959FEF80EC0895002488
S11304200A941616170618060906089500240A9455
S113043012161306140605060895092E0394000CDB
S113044011F4882352F0BB0F40F4BF2B11F460FF6A
S113045004C06F5F7F4F8F4F9F4F089557FD905893
S1130460440F551F59F05F3F71F04795880F97FB74
S1130470991F61F09F3F79F087950895121613062E
S11304801406551FF2CF4695F1DF08C0161617065D
S11304901806991FF1CF8695710561050894089592
S11304A0E894BB2766277727CB0197F908950E9424
S11304B06A020C941D020E940F0238F00E94160278
S11304C020F0952311F00C9406020C940C021124D4
S11304D00C9451020E942E0270F3959FC1F3950F64
S11304E050E0551F629FF001729FBB27F00DB11DB4
S11304F0639FAA27F00DB11DAA1F649F6627B00D44
S1130500A11D661F829F2227B00DA11D621F739F2C
S1130510B00DA11D621F839FA00D611D221F749F3A
S11305203327A00D611D231F849F600D211D822F81
S1130530762F6A2F11249F5750409AF0F1F08823A8
S11305404AF0EE0FFF1FBB1F661F771F881F9150D5
S11305505040A9F79E3F510580F00C9406020C947C
S113056051025F3FE4F3983ED4F3869577956795FF
S1130570B795F795E7959F5FC1F7FE2B880F911DFF
S10F05809695879597F90895F894FFCF9D
S113058C44697374616E636528636D29203D200092
S9030000FC
