S017000077617463685F646F675F74696D65722E73726563DD
S11300000C9434000C9449000C9449000C9449005D
S11300100C9449000C9449000C9449000C94490038
S11300200C9449000C9449000C9449000C94490028
S11300300C9449000C9449000C9449000C94490018
S11300400C9449000C9449000C9449000C94490008
S11300500C9449000C9449000C9449000C944900F8
S11300600C9449000C94490011241FBECFEFD8E032
S1130070DEBFCDBF11E0A0E0B1E0E0E4F2E002C0F9
S113008005900D92A032B107D9F70E94E8000C94B4
S11300901E010C940000E0ECF0E08081826080831B
S11300A01092C5008FEC8093C400E2ECF0E08081F4
S11300B086608083E1ECF0E08081806180838081D0
S11300C0886080830895E0ECF0E0908195FFFDCF97
S11300D08093C6000895EF92FF920F931F93CF93DE
S11300E0DF9300D000D000D0CDB7DEB7AC0180E301
S11300F090E09A838983FE01339684E0DF011D92A8
S11301008A95E9F741155105B9F1329700E010E0FD
S113011001C08C019A01ADECBCEC0E940F019695D4
S1130120879596958795969587959C01220F331F01
S1130130880F991F880F991F880F991F820F931F8B
S11301409A01281B390BC901805D81939A010E9491
S11301500F01AC0156954795569547955695479589
S1130160C801019641155105A1F6FE01E80FF91FDA
S1130170118211231CF410C000E010E0CE01800FA6
S1130180911FDC0112967D01F70182917F010E948B
S1130190630001501109C2F726960FB6F894DEBF2A
S11301A00FBECDBFDF91CF911F910F91FF90EF90C4
S11301B00895CF93DF93EC018881882331F0219651
S11301C00E94630089918111FBCFDF91CF91089543
S11301D099E288E10FB6F894A895809360000FBE69
S11301E0909360000E944B0080E091E00E94D9004F
S11301F0C0E0D0E02FEF83ED90E3215080409040A9
S1130200E1F700C00000219687E191E00E94D90047
S1130210CE010E946B008AE00E946300EBCFA29F94
S1130220B001B39FC001A39F700D811D1124911DC6
S1130230B29F700D811D1124911D0895F894FFCF74
S11302402A2A20496E697469616C697A6174696FDC
S11302506E202A2A200A00436F756E74203A20000B
S9030000FC
