:100000000C9434000C943E000C943E000C943E0082
:100010000C943E000C943E000C943E000C943E0068
:100020000C943E000C943E000C943E000C943E0058
:100030000C943E000C943E000C943E000C943E0048
:100040000C943E000C943E000C943E000C943E0038
:100050000C943E000C943E000C943E000C943E0028
:100060000C943E000C943E0011241FBECFEFD8E04C
:10007000DEBFCDBF0E94F2000C94D5020C940000AC
:10008000E0ECF0E08081826080831092C5008FEC0C
:100090008093C400E2ECF0E0808186608083E1EC34
:1000A000F0E0808180618083808188608083089512
:1000B000E0ECF0E0908195FFFDCF8093C6000895BD
:1000C000EF92FF920F931F93CF93DF9300D000D056
:1000D00000D0CDB7DEB7AC0180E390E09A8389838E
:1000E000FE01339684E0DF011D928A95E9F7411500
:1000F0005105B9F1329700E010E001C08C019A017E
:10010000ADECBCEC0E94C6029695879596958795B6
:10011000969587959C01220F331F880F991F880F92
:10012000991F880F991F820F931F9A01281B390B63
:10013000C901805D81939A010E94C602AC01569567
:1001400047955695479556954795C801019641158F
:100150005105A1F6FE01E80FF91F118211231CF4CD
:1001600010C000E010E0CE01800F911FDC0112965C
:100170007D01F70182917F010E9458000150110911
:10018000C2F726960FB6F894DEBF0FBECDBFDF9143
:10019000CF911F910F91FF90EF900895ACE7B0E0E1
:1001A0009C9190649C93EAE7F0E090819760908343
:1001B0009081906890839081906290839C912C9123
:1001C000907E892B822B8C9380818064808308951C
:1001D000EAE7F0E0808184FFFDCF80917800909184
:1001E000790008950E94400081E00E94CE000E94A4
:1001F000E800BC01990F880B990B0E94CD0120E00B
:1002000030E040EA50E40E94590220E030EC4FE731
:1002100054E40E94230120E030E048EC52E40E94C4
:1002200059020E949501CB010E9460008AE00E9461
:1002300058002FEF83ED90E3215080409040E1F78C
:1002400000C00000D4CF0E9437010C941F020E940E
:10025000180258F00E94110240F029F45F3F29F083
:100260000C94080251110C9453020C940E020E943B
:10027000300268F39923B1F3552391F3951B550B85
:10028000BB27AA2762177307840738F09F5F5F4F69
:10029000220F331F441FAA1FA9F335D00E2E3AF0A8
:1002A000E0E832D091505040E695001CCAF72BD0C0
:1002B000FE2F29D0660F771F881FBB1F2617370711
:1002C0004807AB07B0E809F0BB0B802DBF01FF2743
:1002D00093585F4F3AF09E3F510578F00C94080216
:1002E0000C9453025F3FE4F3983ED4F386957795E0
:1002F0006795B795F7959F5FC9F7880F911D9695FC
:10030000879597F90895E1E0660F771F881FBB1F57
:10031000621773078407BA0720F0621B730B840B04
:10032000BA0BEE1F88F7E09508950E949C0168942F
:10033000B1110C94530208950E94380288F09F571F
:1003400098F0B92F9927B751B0F0E1F0660F771FF9
:10035000881F991F1AF0BA95C9F714C0B13091F0EF
:100360000E945202B1E008950C945202672F782F38
:100370008827B85F39F0B93FCCF3869577956795B4
:10038000B395D9F73EF490958095709561957F4F20
:100390008F4F9F4F0895E89409C097FB3EF49095C6
:1003A0008095709561957F4F8F4F9F4F9923A9F04E
:1003B000F92F96E9BB279395F695879577956795DD
:1003C000B795F111F8CFFAF4BB0F11F460FF1BC021
:1003D0006F5F7F4F8F4F9F4F16C0882311F096E9B4
:1003E00011C0772321F09EE8872F762F05C0662362
:1003F00071F096E8862F70E060E02AF09A95660F1B
:10040000771F881FDAF7880F9695879597F90895D3
:1004100097F99F6780E870E060E008959FEF80ECB7
:10042000089500240A94161617061806090608955A
:1004300000240A9412161306140605060895092EC0
:100440000394000C11F4882352F0BB0F40F4BF2B2F
:1004500011F460FF04C06F5F7F4F8F4F9F4F08956F
:1004600057FD9058440F551F59F05F3F71F0479565
:10047000880F97FB991F61F09F3F79F0879508954A
:10048000121613061406551FF2CF4695F1DF08C069
:10049000161617061806991FF1CF86957105610586
:1004A00008940895E894BB2766277727CB0197F92E
:1004B00008950E946C020C941F020E94110238F0F1
:1004C0000E94180220F0952311F00C9408020C945D
:1004D0000E0211240C9453020E94300270F3959F77
:1004E000C1F3950F50E0551F629FF001729FBB272B
:1004F000F00DB11D639FAA27F00DB11DAA1F649FC7
:100500006627B00DA11D661F829F2227B00DA11D79
:10051000621F739FB00DA11D621F839FA00D611DFF
:10052000221F749F3327A00D611D231F849F600D20
:10053000211D822F762F6A2F11249F5750409AF049
:10054000F1F088234AF0EE0FFF1FBB1F661F771FD5
:10055000881F91505040A9F79E3F510580F00C94A0
:1005600008020C9453025F3FE4F3983ED4F386955F
:1005700077956795B795F795E7959F5FC1F7FE2B40
:10058000880F911D9695879597F90895A29FB001C0
:10059000B39FC001A39F700D811D1124911DB29FB7
:0E05A000700D811D1124911D0895F894FFCF58
:00000001FF
